{
    "contractName": "MerkleTree",
    "abi": [
        {
            "inputs": [
                {
                    "internalType": "string",
                    "name": "value",
                    "type": "string"
                }
            ],
            "name": "addLeaf",
            "outputs": [
                {
                    "internalType": "uint256",
                    "name": "",
                    "type": "uint256"
                }
            ],
            "stateMutability": "nonpayable",
            "type": "function"
        },
        {
            "inputs": [],
            "name": "getDim",
            "outputs": [
                {
                    "internalType": "uint256[10]",
                    "name": "",
                    "type": "uint256[10]"
                }
            ],
            "stateMutability": "view",
            "type": "function"
        },
        {
            "inputs": [],
            "name": "getRootHash",
            "outputs": [
                {
                    "internalType": "uint256",
                    "name": "",
                    "type": "uint256"
                }
            ],
            "stateMutability": "view",
            "type": "function"
        },
        {
            "inputs": [
                {
                    "internalType": "uint256",
                    "name": "",
                    "type": "uint256"
                }
            ],
            "name": "leaves",
            "outputs": [
                {
                    "internalType": "string",
                    "name": "",
                    "type": "string"
                }
            ],
            "stateMutability": "view",
            "type": "function"
        }
    ],
    "bytecode": "608060405234801561001057600080fd5b50610975806100206000396000f3fe608060405234801561001057600080fd5b506004361061004c5760003560e01c8063020c874f1461005157806375a5d2291461006f57806380759f1f14610090578063d455a79d14610098575b600080fd5b6100596100b8565b604051610066919061070b565b60405180910390f35b61008261007d366004610753565b610131565b604051908152602001610066565b6100826104d7565b6100ab6100a6366004610804565b610525565b604051610066919061081d565b6100c0610619565b6100c8610619565b6000805482525b60005481101561012b57600081815481106100ec576100ec610872565b6000918252602090912001548261010483600161089e565b600a811061011457610114610872565b602002015280610123816108b6565b9150506100cf565b50919050565b60018054808201825560009182528251610172917fb10e2d527612073b26eecdfd717e6a320cf44b4afac2b0732d9fcbe2b7fa0cf601906020850190610638565b50600054610182576101826105d1565b8151602083012060008054819061019b5761019b610872565b6000918252602080832090910180546001810182559083529082200182905580805b600054831015610485576002600084815481106101dc576101dc610872565b6000918252602090912001546101f291906108d1565b600114156102f757600054610209906001906108f3565b8314156102f2576102186105d1565b6000838154811061022b5761022b610872565b9060005260206000200160016000858154811061024a5761024a610872565b60009182526020909120015461026091906108f3565b8154811061027057610270610872565b90600052602060002001549150819050818160405160200161029c929190918252602082015260400190565b60408051601f198184030181529190528051602090910120935060006102c384600161089e565b815481106102d3576102d3610872565b6000918252602080832090910180546001810182559083529120018490555b610473565b6000838154811061030a5761030a610872565b9060005260206000200160016000858154811061032957610329610872565b60009182526020909120015461033f91906108f3565b8154811061034f5761034f610872565b906000526020600020015491506000838154811061036f5761036f610872565b9060005260206000200160026000858154811061038e5761038e610872565b6000918252602090912001546103a491906108f3565b815481106103b4576103b4610872565b9060005260206000200154905081816040516020016103dd929190918252602082015260400190565b60408051601f198184030181529190528051602090910120935083600061040585600161089e565b8154811061041557610415610872565b9060005260206000200160016000866001610430919061089e565b8154811061044057610440610872565b60009182526020909120015461045691906108f3565b8154811061046657610466610872565b6000918252602090912001555b8261047d816108b6565b9350506101bd565b60008054610495906001906108f3565b815481106104a5576104a5610872565b906000526020600020016000815481106104c1576104c1610872565b9060005260206000200154945050505050919050565b6000805481906104e9906001906108f3565b815481106104f9576104f9610872565b9060005260206000200160008154811061051557610515610872565b9060005260206000200154905090565b6001818154811061053557600080fd5b9060005260206000200160009150905080546105509061090a565b80601f016020809104026020016040519081016040528092919081815260200182805461057c9061090a565b80156105c95780601f1061059e576101008083540402835291602001916105c9565b820191906000526020600020905b8154815290600101906020018083116105ac57829003601f168201915b505050505081565b60008054600181018255908052606080519091610615917f290decd9548b62a8d60345a988386fc84ba6bc95484008f6362f93160ef3e563909101906080906106bc565b5050565b604051806101400160405280600a906020820280368337509192915050565b8280546106449061090a565b90600052602060002090601f01602090048101928261066657600085556106ac565b82601f1061067f57805160ff19168380011785556106ac565b828001600101855582156106ac579182015b828111156106ac578251825591602001919060010190610691565b506106b89291506106f6565b5090565b8280548282559060005260206000209081019282156106ac57916020028201828111156106ac578251825591602001919060010190610691565b5b808211156106b857600081556001016106f7565b6101408101818360005b600a811015610734578151835260209283019290910190600101610715565b50505092915050565b634e487b7160e01b600052604160045260246000fd5b60006020828403121561076557600080fd5b813567ffffffffffffffff8082111561077d57600080fd5b818401915084601f83011261079157600080fd5b8135818111156107a3576107a361073d565b604051601f8201601f19908116603f011681019083821181831017156107cb576107cb61073d565b816040528281528760208487010111156107e457600080fd5b826020860160208301376000928101602001929092525095945050505050565b60006020828403121561081657600080fd5b5035919050565b600060208083528351808285015260005b8181101561084a5785810183015185820160400152820161082e565b8181111561085c576000604083870101525b50601f01601f1916929092016040019392505050565b634e487b7160e01b600052603260045260246000fd5b634e487b7160e01b600052601160045260246000fd5b600082198211156108b1576108b1610888565b500190565b60006000198214156108ca576108ca610888565b5060010190565b6000826108ee57634e487b7160e01b600052601260045260246000fd5b500690565b60008282101561090557610905610888565b500390565b600181811c9082168061091e57607f821691505b6020821081141561012b57634e487b7160e01b600052602260045260246000fdfea26469706673582212200899f9390218823066f8db2d33f885fa45d7a537697eb0678f3d5afce501e0da64736f6c634300080c0033",
    "sourcePath": "/Users/simon/Desktop/zku/week1/MerkleTree.sol",
    "compiler": {
        "name": "solc",
        "version": "0.8.12+commit.f00d7308"
    },
    "functionHashes": {
        "addLeaf(string)": "75a5d229",
        "getDim()": "020c874f",
        "getRootHash()": "80759f1f",
        "leaves(uint256)": "d455a79d"
    },
    "gasEstimates": {
        "creation": {
            "codeDepositCost": "484200",
            "executionCost": "518",
            "totalCost": "484718"
        },
        "external": {
            "addLeaf(string)": "infinite",
            "getDim()": "infinite",
            "getRootHash()": "8870",
            "leaves(uint256)": "infinite"
        },
        "internal": {
            "_addNewLayer()": "infinite"
        }
    }
}